S012000053746F702057617463682E7372656355
S11300000C942A000C9434000C9434000C943400A6
S11300100C9434000C9434000C9434000C9446007A
S11300200C9434000C9434000C9434000C9434007C
S11300300C9434000C9434000C9434000C9434006C
S11300400C9434000C9434000C9434000C9434005C
S11300500C94340011241FBECFE5D8E0DEBFCDBF21
S11300600E9458000C945F000C94000088B78061D3
S113007088BF89B7806189BF78941FBC8EB58C60B6
S11300808EBD81E19AE79BBD8ABD08951F920F92B0
S11300900FB60F9211248F939F9395B387E089270E
S11300A085BB9F918F910F900FBE0F901F90189555
S11300B084B3876084BB15BA0E943600FFCFF894DE
S10500C0FFCF6C
S9030000FC
